:020000040800F2
:10000000080500209D010008BB190008131800080E
:10001000B9190008E1030008571B000800000000A0
:10002000000000000000000000000000BF190008F0
:100030009504000800000000BD190008C11900085F
:10004000B7010008B7010008B7010008B7010008B0
:10005000B7010008B7010008B7010008B7010008A0
:10006000B7010008B7010008B7010008B701000890
:10007000B7010008B7010008B7010008B701000880
:10008000B7010008B7010008B7010008B701000870
:10009000B7010008B7010008B7010008B701000860
:1000A000B7010008191A0008B7010008B7010008D5
:1000B000B7010008B7010008B7010008B701000840
:1000C000B7010008B7010008B7010008B701000830
:1000D000B7010008B7010008B7010008B701000820
:1000E000B7010008B7010008B7010008B701000810
:1000F000B7010008B7010008B7010008B701000800
:10010000B7010008B7010008B7010008B7010008EF
:10011000B7010008B7010008B7010008B7010008DF
:10012000E5030008B7010008B7010008B70100089F
:10013000B7010008B7010008B7010008B7010008BF
:10014000B7010008B7010008B7010008B7010008AF
:10015000B7010008B7010008B7010008B70100089F
:10016000B7010008B7010008B7010008B70100088F
:10017000B7010008B7010008B7010008000000003F
:10018000B7010008DFF810D000F07CF80048004705
:10019000D91B0008AFF300800805002006488047FF
:1001A00006480047FEE7FEE7FEE7FEE7FEE7FEE75C
:1001B000FEE7FEE7FEE7FEE7151A000885010008E6
:1001C0002DE9F05F0546002092469B46884606468C
:1001D000814640241BE0284641464746224600F01F
:1001E00041F853465A46C01A914110D31146184659
:1001F000224600F028F82D1A67EB01084F462246E8
:100200000120002100F01FF817EB00094E41201ECD
:10021000A4F10104DFDC484631462A464346BDE8E6
:10022000F09FD2B201E000F8012B491EFBD27047CB
:100230000022F6E710B513460A4604461946FFF7B2
:10024000F0FF204610BD202A04DB203A00FA02F11C
:10025000002070479140C2F1200320FA03F31943B4
:1002600090407047202A04DB203A21FA02F0002156
:10027000704721FA02F3D040C2F1200291400843B6
:1002800019467047064C074D06E0E06840F0010350
:1002900094E8070098471034AC42F6D3FFF776FF96
:1002A000281D0008481D00084B4910B5D1F804234B
:1002B00022F44032C1F80423D1F8042343681A43DE
:1002C000C1F8042301684A6822F480724A60016818
:1002D0004A68036942EA03224A6001684A6822F0D8
:1002E00040724A6001684A6883681A434A6001683C
:1002F0008A6822F400628A6001688A68C3681A43C7
:100300008A60816A6FF07062D14201688A6822F067
:1003100070628A6001688A680CD0836A1A438A60B6
:1003200001688A6822F040528A6001688A68C36A5C
:100330001A4301E022F040528A6001688A6822F084
:1003400002028A6001688A68037E42EA43028A6088
:1003500090F82010002901684A6815D042F4006224
:100360004A6001684A6822F460424A6001684B684A
:100370004FF46044426A94FAA4F4B4FA84F4521E2E
:10038000A24013434B6002E022F400624A6001681D
:10039000CA6A22F47002CA620168CA6A838B0F4C6F
:1003A00004EB03531A43CA6201688A6822F400729C
:1003B0008A6001688A6890F8303042EA43228A6095
:1003C00001688A6822F480628A6001688A684069EC
:1003D00042EA8020886010BD002001400000F0FF4C
:1003E000FEE70000014800F03FBA00005C0000207A
:1003F00001681823CAB2103AB2FBF3F2054B6FF34F
:100400000901032A9B5CC36500D9091D8165084663
:1004100070470000101D000810B5014600208B69D0
:100420008A6A4FF0C07453B1B3F5005F15D072B152
:10043000012A0CD0022A0AD0032A09D104E01AB1F9
:10044000012A06D0022A03D1C96AC90100D50120B8
:1004500010BDC96AA142FAD010BD002AF7D0012A06
:10046000F2D0022AF3D0032AF3D010BD30B50468CD
:10047000256825F480252560046863608368402B27
:10048000036803D099600068C26030BD9A6000685C
:10049000C16030BD70470000044900220B685A62F9
:1004A00009684A6A8242FCD370470000BC00002001
:1004B00072B6FEE778B50024009490F83C20012A3B
:1004C00019D0012280F83C200A6807230568092A10
:1004D00013D9EE680A3A02EB420293409E43EE6063
:1004E0000B788A680A3B03EB43039A400368DD6894
:1004F0002A43DA6010E0022078BD2E6902EB420246
:1005000093409E432E610A788B6802EB420293402F
:10051000026815692B4313614A681F23072A13D207
:1005200005686E6B521E02EB820293409E436E631F
:100530000B790A885B1E92B203EB83039A4003682F
:100540005D6B2A435A6327E005680D2A12D22E6B91
:10055000D21F02EB820293409E432E630B790A88DE
:10056000DB1F92B203EB83039A4003681D6B2A439F
:100570001A6311E0EE6A0D3A02EB820293409E4349
:10058000EE620B790A880D3B92B203EB83039A402B
:100590000368DD6A2A43DA62174A0368934208D186
:1005A0000B68122B05D1D2F8043343F48003C2F850
:1005B0000433036893421AD10B68102B01D0112B1E
:1005C00015D1D2F8043343F40003C2F804330968A8
:1005D00010290CD109490A4A0968B1FBF2F101EB73
:1005E0008101490000E0491E00910029FBD180F8FB
:1005F0003C40002078BD0000002001400C0000209D
:1006000040420F000068C06C704770B504004FF0A6
:10061000000503D0206C002610B107E0012070BD5A
:10062000204600F01DF8666484F83C60206CC0062B
:1006300010D4206C20F4885040F002002064204642
:10064000FFF732FE6664206C20F0020040F00100EB
:10065000206400E0012584F83C60284670BD00005D
:1006600010B586B0044614216846FFF7E1FD114934
:10067000206888421CD110480021026842F4807230
:100680000260006800F4807005900B48143802681E
:1006900042F001020260006800F0010005900120B4
:1006A00000900320CDE901016946044800F04EFAAC
:1006B00006B010BD00200140443802400000024056
:1006C0002DE9F041044600680D4681684FF00007AF
:1006D00049050BD58068C00508D5206C40F0200086
:1006E000206484F83C700120BDE8F08100F07CFBC0
:1006F00006460FE0681C0DD025B100F075FB801B8D
:10070000A84207D9206C40F00400206484F83C70B3
:100710000320E9E7206800688007EBD521686FF0C7
:1007200012000860206C40F400702064206881682A
:1007300011F0405F13D1217E89B9C16A11F4700FA5
:1007400002D0806840050AD4206C20F480702064B8
:10075000206CC00403D4206C40F001002064002011
:10076000C2E7000018B50021009190F83C20012A52
:1007700007D0012280F83C2002689368DB0702D092
:1007800011E0022018BD936843F001039360244AEE
:10079000244B1268B2FBF3F202EB420200E0521E5D
:1007A0000092002AFBD102689368DB072ED0036C0D
:1007B00040F20164A34343F48073036453685B0510
:1007C00005D5036C23F4005343F480530364036C96
:1007D000DB0404D5436C23F00603436400E041646A
:1007E00080F83C106FF0220111600F49D1F804230A
:1007F0000068D20601D0884210D1816811F0405FB4
:100800000CD1816841F08041816007E0016C41F0CA
:1008100010010164416C41F001014164002018BDE8
:100820000C00002040420F000020014090F83C10D6
:1008300001290CD0012180F83C1001688A6822F05F
:1008400001028A6001688968C90702D007E00220B6
:100850007047016C21F4885141F0010101640021CD
:1008600080F83C10084670472DE9F84304464FF0E5
:100870000009CDF8009063484FF41651A56D00684B
:10088000B0FBF1F72E6894F85C10082000FA01F133
:1008900031420FD021680A6852070BD50A6822F04E
:1008A00004020A6094F85C108840A860606D40F013
:1008B0000100606594F85C104FF0010808FA01F03F
:1008C000304208D021684969090604D5A860606DE6
:1008D00040F00200606594F85C10042088403042CB
:1008E00008D021680968890704D5A860606D40F0C8
:1008F0000400606594F85C1010208840304218D0E5
:1009000021680968090714D5A860206801684903AF
:1009100004D50068000308D5A16C07E00168C9058B
:1009200003D4016821F008010160216C09B120465F
:10093000884794F85C1020208840304231D02168EC
:100940000968C9062DD5A86094F8350005282068E7
:10095000016806D0490347D5006800031DD4616CC7
:100960001CE021F0160101602068416921F080013E
:100970004161206C08B9A06C20B12068016821F0A9
:100980000801016094F85C103F208840A86084F85A
:10099000358084F83490216D1FE0E16B09B1204669
:1009A0008847606D00282BD0606DC00714D00520EB
:1009B00084F835002068016821F001010160009889
:1009C000401C0090B84203D820680068C007F6D1E8
:1009D00084F8358084F83490E16C002910D001B09F
:1009E0002046BDE8F04308470168C905D5D4016831
:1009F00021F01001016084F8358084F83490CCE750
:100A0000BDE8F8830C0000202DE9F041044600F019
:100A1000EBF906465CB1022084F83500002584F825
:100A200034502068016821F0010101600DE00120CF
:100A3000BDE8F08100F0D8F9801B052805D92020F9
:100A40006065032084F83500F2E720680068C0077D
:100A5000F0D12268116820480140D4E9010318430D
:100A6000D4E903363343184363691843A369184331
:100A7000E3691843236A18430843616A042903D1D0
:100A8000D4E90B1319430843106020684069666A73
:100A900020F0070130460E43012704280CD1A06A3C
:100AA0000643E06A40B12046FFF7B6FC20B1402083
:100AB000606584F83570BAE7206846612046FFF724
:100AC00097FC94F85C203F2191408160656584F833
:100AD00035700020ACE700003F8010F02DE9F041B8
:100AE0000446866D90F83400002501280DD00120C1
:100AF00084F8340094F835700020012F07D084F872
:100B0000340002252846BDE8F0810220FBE70227D9
:100B100084F8357060652046FFF7A8FC94F85C10F7
:100B20003F208840B0602068016841F016010160F4
:100B3000206C20B12068016841F008010160206844
:100B4000016841F001010160DCE700002DE9F04F90
:100B5000DFF85092002309F1040A012603250AF167
:100B6000040B85B00F270BF1040E12E1224606FAA2
:100B700003F422407ED091F804C00CF0030CBCF1C9
:100B8000010F02D0BCF1020F26D1D0F80880CDF8B9
:100B900000804FEA430805FA08FCCDF81080DDF824
:100BA000008028EA0C08CDF80080D1F80CC0DDF8F0
:100BB00010800CFA08FCDDF800804CEA080CC0F844
:100BC00008C0D0F804C02CEA040C0C79C4F300145B
:100BD0009C4044EA0C0444600C79E443A40712D01E
:100BE000C4684FEA430CCDF808C005FA0CFC24EAAF
:100BF0000C04D1F80880DDF808C008FA0CF848EABF
:100C00000408C0F80C800C7904F00304022C16D1FF
:100C1000DC0800EB840CCDF808C0DCF820C05C07D1
:100C20004FEAD46807FA08F42CEA040C0C6904FAB9
:100C300008F444EA0C04DDF808C0CCF8204004684D
:100C40004FEA430805FA08FC24EA0C0491F804C0B2
:100C50000CF0030C0CFA08FC4CEA040CC0F800C0C1
:100C60004C6814F4403F05D04F4CD4F800C04CF40D
:100C7000804C00E08CE0C4F800C0246823F0030C32
:100C800004F480440094494C64440294D4F8084825
:100C90004FEA837C4FEA1C7807FA08FC24EA0C042C
:100CA000DFF80CC1604502D14FF0000C39E0DFF8ED
:100CB00004C1604502D14FF0010C32E0DFF8F8C00A
:100CC000604502D14FF0020C2BE0DFF8F0C0604528
:100CD00002D14FF0030C24E0DFF8E4C0604502D1FC
:100CE0004FF0040C1DE0DFF8DCC0604502D14FF08E
:100CF000050C16E0DFF8D0C0604502D14FF0060CBD
:100D00000FE0DFF8C8C0604502D14FF0070C08E0E3
:100D1000DFF8BCC0604502D14FF0080C01E04FF095
:100D2000090C0CFA08FC4CEA040C029CC4F808C834
:100D3000D9F80040CC46D1F8048094435FEAC83823
:100D400000D51443CCF80040DAF80040D446D1F87E
:100D5000048094435FEA883800D51443CCF80040FF
:100D6000DBF80040DC46D1F8048094435FEAC828F1
:100D700000D51443CCF80040DEF80040F446D1F82A
:100D8000048094435FEA882800D51443CCF80040DF
:100D90005B1C0A681446DA407FF4E8AE05B0BDE893
:100DA000F08F0000003C0140443802400030014018
:100DB000000002400004024000080240000C024013
:100DC000001002400014024000180240001C0240C3
:100DD000002002400069084000D0012070470AB19D
:100DE000816170470904FBE7014880687047000093
:100DF0000000002002488168027811448160704739
:100E0000000000200B4810B5016841F4007101603A
:100E1000016841F480610160016841F48071016002
:100E2000032000F06FF8002000F006F800F024F82E
:100E3000002010BD003C024070B50D4D04464FF43B
:100E40007A712878B1FBF0F00A490968B1FBF0F03B
:100E500000F0D6FA48B9102C07D200222146501EC5
:100E600000F030F800206C6070BD012070BD000003
:100E7000000000200C0000200A4808B5016841F479
:100E800080410160006800F4804000900548001F28
:100E9000016841F080510160006800F080500090CE
:100EA00008BD000044380240002809DB00F01F02A2
:100EB000012191404009800000F1E020C0F80011BC
:100EC00070470000F0B40E4B1B680C46C3F30223BE
:100ED000C3F10705042D00D90425191D072901D2E6
:100EE000002300E0DB1E012606FA05F1491E214021
:100EF00099409E40761E16403143F0BC00F02DBE56
:100F00000CED00E0064900F0070208684FF6FF0309
:100F1000184040EA0220034A10430860704700006E
:100F20000CED00E00000FA052DE9F0470E46050043
:100F300063D0DFF81C81D8F80000F7B200F00F0092
:100F4000B04207D288F80070D8F8000000F00F0017
:100F5000B04252D128683F4C810712D5400703D5D3
:100F6000206840F4E05020602878000703D520680E
:100F700040F4604020602068A96820F0F000084339
:100F800020602878C0072BD03249686808390128CA
:100F900010D00968022810D0890700292DDA2168AD
:100FA00021F0030101432160FFF71EFF814641F25A
:100FB000883A0EE009688903EFE78901EDE700BF91
:100FC000FFF712FFA0EB0901514502D90320BDE84C
:100FD000F0872068696800F00C00B0EB810FEFD15A
:100FE000D8F80010404601F00F01B14207D9077050
:100FF000006800F00F00B04201D00120E7E7287838
:10100000400705D52068E96820F4E05008432060D7
:101010002878000706D52068296920F4604040EA56
:10102000C100206000F01EF82168F02292FAA2F2BE
:1010300001F0F001B2FA82F2D140074A515CC84097
:101040000649086006480068FFF7F6FE0020BEE784
:10105000003C024008380240181D00080C00002027
:1010600004000020154810B5006810F00C02144868
:1010700013D01449042A0FD0082A0ED10F4C241F74
:101080002268236802F03F025B0207D52068C0F3A4
:101090008810A0FB010106E0084610BD2168C1F3DD
:1010A0008811A1FB00010023FFF78AF82168C1F332
:1010B0000141491C4900B0FBF1F010BD0838024065
:1010C0000024F40040787D012DE9F84F04007BD026
:1010D000DFF814B32078ABF10406C007A6F10405CD
:1010E00036D0DBF800105846C1F38101012907D042
:1010F0000068C0F38100022809D13068400206D59B
:101100002868800324D560680028E0D020E0B64934
:101110002079891F0870606868B1FFF765FE07468F
:1011200005E000BFFFF760FEC01B642876D8286882
:101130008003F7D50CE0FFF757FE074605E000BF38
:10114000FFF752FEC01B6428F0D828688003F7D44C
:101150002078DFF8988280074FF0000944D5DBF84B
:101160000010584611F00C0F4FF0F80A07D0006835
:10117000C0F38100022809D13068400206D42868F3
:10118000800715D5E06801281ED111E0E068E0B1C4
:101190000120C8F80000FFF727FE074605E000BF62
:1011A000FFF722FEC01B0228C0D828688007F7D5A9
:1011B00028689AFAAAF22169B2FA82F220F0F800BD
:1011C0009140084328600FE00AE1C8F80090FFF75B
:1011D0000BFE074605E000BFFFF706FEC01B022816
:1011E0001CD828688007F7D42078000727D5DFF8B7
:1011F000F8A17F4861690AF16C0A81B1012101609F
:10120000FFF7F2FD074604E0FFF7EEFDC01B0228E2
:1012100004D8DAF800008007F6D510E082E0C0F8C4
:101220000090FFF7E1FD074605E000BFFFF7DCFD9A
:10123000C01B022876D8DAF800008007F6D42078A0
:1012400040075FD5DFF8A0A100270AF1380ADAF8D5
:101250000000C0000BD4DAF8001041F08051CAF849
:101260000010DAF80000012700F08050009061487B
:10127000016841F4807101600168C90512D40168F8
:1012800041F480710160FFF7AFFD009006E000BF00
:10129000FFF7AAFD0099401A02287ED85548006839
:1012A000C005F5D55049207A68310870A06888B12A
:1012B000FFF79AFD009007E0FFF796FD0099411AAD
:1012C00041F28830814268D847486830006880071A
:1012D000F2D510E0FFF788FD009007E0FFF784FDEE
:1012E0000099411A41F28830814256D83E48683010
:1012F00000688007F2D42FB1DAF8001021F0805195
:10130000CAF80010A069B8B3DBF80010C1F381017E
:10131000022949D00228C8F8609004D0FFF764FD84
:1013200004463DE039E0FFF75FFD074605E000BFFA
:10133000FFF75AFDC01B64282FD828688001F7D416
:10134000D4E907010843616A94F82C20890141EA35
:1013500002610843A16A284A490802EB0141084397
:101360003168264A1140084330600120C8F8600007
:10137000FFF73AFD044606E034E000BFFFF734FD16
:10138000001B642809D828688001F7D52AE000BF2F
:10139000FFF72AFD001B642802D90320BDE8F88F5F
:1013A00028688001F4D41DE00128F7D03068E26994
:1013B00000F48001914213D1226A00F03F01914272
:1013C0000ED1616AC0F38812914209D1A26A00F479
:1013D0004031914204D1E16A00F07060884201D04E
:1013E0000120DBE70020D9E708380240000047422F
:1013F000800E4742007000400000FFFF0080BCF0FC
:1014000010B5401EB0F1807F01D3012010BD4FF018
:10141000E02460610F21601700F09FFB0020A061B5
:1014200007202061002010BD7047704770B590F80C
:101430003C20012A32D0012480F83C40022280F86E
:101440003D2003685A689D6822F070060A6832439E
:101450005A60134B02689A4214D0B2F1804F11D0F7
:10146000104B9A420ED0104B9A420BD00F4B9A421F
:1014700008D00F4B9A4205D00E4B9A4202D00E4B29
:101480009A4204D1496825F080031943916080F89D
:101490003D40002180F83C10084670BD022070BD20
:1014A000000001400004004000080040000C004023
:1014B00000040140004001400018004010B5040045
:1014C00003D094F83D0010B107E0012010BD0020CA
:1014D00084F83C00204600F01FF8022084F83D000C
:1014E000211D206800F09EFA012084F8460084F84F
:1014F0003E0084F83F0084F8400084F8410084F8FE
:10150000420084F8430084F8440084F8450084F8DD
:101510003D00002010BD000008B500680B4988425E
:1015200012D10B48016841F00101016000680022FE
:1015300000F00100009001211920FFF7C3FCBDE875
:1015400008401920FFF7B0BC08BD000000000140B2
:101550004438024090F83D10012901D00120704725
:10156000022180F83D1000681149884214D0B0F182
:10157000804F11D00F4988420ED00F4988420BD0BE
:101580000E49884208D00E49884205D00D4988424C
:1015900002D00D49884204D1816801F00701062973
:1015A00003D0016841F00101016000207047000094
:1015B000000001400004004000080040000C004012
:1015C00000040140004001400018004070B504468E
:1015D00090F83C00012817D0012584F83C500220E7
:1015E00084F83D002068826822F0770222F47F426E
:1015F00082600868502830D00DDC20284DD005DCF2
:1016000098B310283BD148E0022070BD302844D068
:10161000402834D139E0602828D0702806D0B0F5B1
:10162000805F2CD0B0F5005F29D10AE0CB68D1E90A
:101630000121206800F05AFA2068816841F07701A2
:1016400009E0CB68D1E90121206800F04FFA206859
:10165000816841F48041816011E0CA68496820686E
:1016600000F056FA5021206807E016E0CA68496881
:10167000206800F05EFA6021206800F041FA84F8EA
:101680003D50002084F83C0070BDCA68496820685D
:1016900000F03EFA40212068EFE72268014610463C
:1016A000EBE7704770B50446006801694FF000052C
:1016B000C943890715D4C168C943890711D4E91EF4
:1016C000016101202077206880698007204602D0D0
:1016D000FFF7E7FF04E000F098F8204600F096F8E6
:1016E000257720680169C943490717D4C168C943F0
:1016F000490713D46FF004010161022020772068AC
:10170000806910F4407F204602D0FFF7CAFF04E052
:1017100000F07BF8204600F079F825772068016911
:10172000C943090716D4C168C943090712D46FF029
:1017300008010161042020772068C06980072046E5
:1017400002D0FFF7AEFF04E000F05FF8204600F0A3
:101750005DF8257720680169C943C90617D4C168B7
:10176000C943C90613D46FF0100101610820207726
:101770002068C06910F4407F204602D0FFF791FF37
:1017800004E000F042F8204600F040F82577206899
:101790000169C943C90708D1C168C943C90704D150
:1017A000891E0161204600F032F820680169C943B2
:1017B000090609D4C168C943090605D46FF0800140
:1017C00001612046FFF730FE20680169C9434906E0
:1017D00009D4C168C943490605D46FF040010161CD
:1017E000204600F015F820680169C94389060BD42A
:1017F000C168C943890607D46FF020010161204602
:10180000BDE87040FFF711BE70BD7047704770476C
:101810007047FEE77FB500241448009401940294B9
:1018200011490394C0E9001484600461047680F8CF
:1018300020400F49C0E90A140125C561C46080F841
:1018400030404561FEF7E1FE08B1FEF731FECDE91B
:101850000045694605480294FEF72CFE002801D099
:10186000FEF726FE7FBD000000200140140000208E
:101870000100000F164808B50268002142F48002FA
:1018800002600068134A00F4800000901248C0E92A
:101890000021802282609200C2605200C0E90421CF
:1018A00081610422C161C0E908120322C0E90A2152
:1018B0000163FFF7A9F808B1FEF7FAFD0022012144
:1018C0003820FFF7FFFABDE808403820FFF7ECBAF0
:1018D00030380240106402405C00002030B587B010
:1018E00014216846FEF7A4FC15480024016841F065
:1018F00004010160016801F004010591016841F0F3
:101900000101016000680F4D00F0010005902246C2
:1019100078212846FFF763FA0720CDE900046946DD
:1019200009480294FFF712F9782000900120CDE9D0
:101930000104694628460394FFF708F907B030BD53
:1019400030380240000002400008024010B586B066
:1019500000241848009401940294039404941449B8
:10196000059401604FF44871C0E901144FF6FF710E
:10197000C0E9031444618461FFF7A0FD08B1FEF7DC
:1019800097FD4FF48050009069460A48FFF71EFE0D
:1019900008B1FEF78DFD049404A906480594FFF7ED
:1019A00045FD002801D0FEF783FD06B010BD000004
:1019B00000000140BC000020FEE7FEE770477047D2
:1019C000FFF718BA10B592B030216846FEF730FC28
:1019D00014210CA8FEF72CFC02200090012003909B
:1019E00010200024049006946846FFF76DFB08B1B0
:1019F00072B6FEE70F20CDE90C040E940F9400217F
:101A00000CA81094FFF790FA002801D072B6FEE7F8
:101A100012B010BD704700000148FFF743BE000040
:101A2000BC000020F0B50268254C264D264E274FFD
:101A3000274B4FF0804CA04209D0604507D0A84208
:101A400005D0B04203D0B84201D0984204D122F070
:101A5000700E4A6842EA0E02A0421BD0604519D0BF
:101A6000A84217D0B04215D0B84213D0984211D036
:101A7000184DA8420ED0184DA8420BD0174DA842C1
:101A800008D0174DA84205D0164DA84202D0164DD9
:101A9000A84203D122F44075CA682A434D6922F056
:101AA00080022A4302608A68C2620A688262A04297
:101AB00001D0984201D10969016301214161F0BD62
:101AC000000001400004004000080040000C0040FD
:101AD0000004014000400140004401400048014032
:101AE00000180040001C00400020004010B5846831
:101AF00042EA032224F47F440A432243826010BD59
:101B0000826822F070020A4342F007018160704748
:101B100010B5036A046A24F001040462846924F0A5
:101B2000F00444EA021423F00A020A4384610262C8
:101B300010BD10B5036A23F0100303628369046AC1
:101B400023F4704343EA023224F0A00343EA011174
:101B50008261016210BDFEE770470907090E002887
:101B600004DB00F1E02080F80014704700F00F0063
:101B700000F1E02080F8141D704702E008C8121F31
:101B800008C1002AFAD170477047002001E001C166
:101B9000121F002AFBD1704710B50548FEF746FE1C
:101BA0004FF4FA70FEF778FCBDE8104000F002B880
:101BB0001400002010B50648FEF7D4FD0A210448A1
:101BC000FEF77EFD0248FEF71DFD0249086010BDCC
:101BD0001400002010000020FFF714F9FFF7F2FEB8
:101BE000FFF77CFEFFF746FEFFF714FEFFF7AEFEA1
:101BF0000848FFF7AFFC084D084E094C0A23F5636F
:101C0000226806481146FEF769FFFFF7D3FF00F090
:101C100009F8F3E7BC000020591B00085C00002015
:101C20001000002070B5374840F25232364D01683E
:101C3000914263D9354C01212046FFF7CBF80128AA
:101C400010D0002606212046FFF7C4F860B100201E
:101C500006420BD0012220212846FFF7C0F8FFF7EB
:101C60009BFF08E00126EDE70120F1E70022382183
:101C70002846FFF7B4F804212046FFF7ABF8012807
:101C800010D0002603212046FFF7A4F860B1002001
:101C900006420BD0012210212846FFF7A0F8FFF7DB
:101CA0007BFF08E00126EDE70120F1E70022382163
:101CB0002846FFF794F802212046FFF78BF8012809
:101CC00011D0002605212046FFF784F868B10020D6
:101CD00006420CD0012208212846FFF780F8BDE813
:101CE0007040FFF759BF0126ECE70120F0E72846D6
:101CF000BDE8704000223821FFF771B840F22A3168
:101D00000160F4E7100000200000024000080240DB
:101D1000000610160006101600000000000000006B
:101D20000102030406070809481D000800000020FE
:101D3000140000007A1B00085C1D0008140000203D
:101D4000F40400008A1B00080100000010000000DD
:0C1D5000000000000024F400000000006F
:040000050800018569
:00000001FF
