:020000040800F2
:10000000D00900209D010008CF260008F524000833
:10001000CD2600084D0B00084D2B00080000000005
:10002000000000000000000000000000D3260008CF
:10003000F50B000800000000D1260008E1260008AA
:10004000B7010008B7010008B7010008B7010008B0
:10005000B7010008B7010008B7010008B7010008A0
:10006000B7010008B7010008B7010008B701000890
:10007000B7010008B7010008B7010008B701000880
:10008000B7010008B7010008B7010008B701000870
:10009000B7010008B7010008B7010008B701000860
:1000A000B7010008B7010008B7010008B701000850
:1000B000B7010008B70100084D270008B701000884
:1000C000B7010008B7010008B7010008B701000830
:1000D000B7010008412B0008B7010008B70100086C
:1000E000B7010008B7010008B7010008B701000810
:1000F000B7010008B7010008B7010008B701000800
:10010000B7010008B7010008B7010008B7010008EF
:10011000B7010008B7010008B7010008B7010008DF
:10012000B7010008B7010008B7010008B7010008CF
:10013000B7010008B7010008B7010008B7010008BF
:10014000B7010008B7010008B7010008B7010008AF
:10015000B7010008B7010008B7010008B70100089F
:10016000B7010008B7010008B7010008B70100088F
:10017000B7010008B7010008B7010008000000003F
:10018000B7010008DFF810D000F0CEFB00480047B0
:10019000D12B0008AFF30080D0090020064880472B
:1001A00006480047FEE7FEE7FEE7FEE7FEE7FEE75C
:1001B000FEE7FEE7FEE7FEE74B27000885010008A3
:1001C0002DE9F05F0546002092469B46884606468C
:1001D000814640241BE0284641464746224600F01F
:1001E000EDFA53465A46C01A914110D311461846AB
:1001F000224600F0D4FA2D1A67EB01084F4622463A
:100200000120002100F0CBFA17EB00094E41201E1F
:10021000A4F10104DFDC484631462A464346BDE8E6
:10022000F09FD2B201E000F8012B491EFBD27047CB
:100230000022F6E710B513460A4604461946FFF7B2
:10024000F0FF204610BD421C10F8011B0029FBD115
:10025000801A7047F0B480EA0102D40F4200B2EB7A
:10026000410F02D20246084611464A0042D0C30D51
:10027000DDB2C1F3C752AD1A202D35DAC1F3160134
:1002800041F4000204B15242C5F1200602FA06F11F
:100290002A411044B3EBD05F23D0C4B1012DA0EBB1
:1002A000C35009DCF0BC4FF0004202EAC352DBB29B
:1002B00000F5000000F0ADBA400000F1807000EBE6
:1002C000C350A0F1807040EAD170490009E04908AC
:1002D00041EAC071A0EBC35000F50000400800EBFC
:1002E000C350F0BC00F08CBA6142012202EB410124
:1002F000001BF6E7F0BC704781F00041AAE780F0F0
:100300000040A7E780EA010210B502F00043400078
:1003100022D04A001FD0010E01EB1261C0F356003B
:10032000C2F3560240F4000042F40002A0FB022097
:1003300000047F39140400D0401C50EA124001D45C
:100340004000491EC2B20C0604EBD010401C40080D
:10035000802A02D003E0002010BD20F00100002917
:1003600000DA0020184310BD30B480EA010202F028
:10037000004530F0004221F0004013D090B1C30D91
:10038000D40DC2F31601C0F31600E41A41F40001C3
:1003900040F400027D34914201D3641C00E0490026
:1003A000002C02DA30BC002070474FF4000000231C
:1003B000914201D3891A034340084FEA4101F7D122
:1003C00051B1914202D14FF0004105E002D24FF00D
:1003D000010101E06FF0010103EBC450284430BC7F
:1003E00000F00EBA2DE9FE4F804681EA0300C00FEF
:1003F0000C46009021F0004123F00045B8EB0200CC
:10040000A94105D24046214690461C460B4602466D
:1004100023F00040104347D0270DC7F30A00C3F371
:100420000A510290401A019040286BDAC3F313007E
:1004300040F4801B0098924620B10023D2EB030ABF
:1004400063EB0B0B01985946C0F14002504600F097
:10045000A6F906460D4650465946019A00F0BEF9E7
:1004600010EB08006141002487EA115284EAE77327
:100470001A4340D0009A62B3019A012A4FEA075208
:1004800015DC001B61EB02014FF0004202EA07524B
:10049000CDE90042001C41F5801132462B4600F0A8
:1004A000F5F903B0BDE8F08F40462146F9E7001B9F
:1004B00061EB0201001C41F5801300185B4120181C
:1004C000A2F5001747EB030140EAD570B6196D415C
:1004D00011E06D084FEA360645EAC0754FEA07524B
:1004E000001B61EB0201001C41F5801149084FEA35
:1004F00030000019514132462B4603B0BDE8F04FA1
:1005000000F0B5B90098012240000023D0EB0202B0
:1005100063EBE073009821464FEAE074B8EB00000B
:1005200061EB0401E9E783F000435BE781F0004100
:1005300058E72DE9FE4F81EA030404F0004421F05E
:10054000004100944FF0000B23F0004350EA0104F7
:100550005ED052EA03045BD0C3F30A54C1F30A55D8
:100560002C44A4F2F3340194A0FB0254C1F3130110
:1005700041F48011C3F3130343F4801301FB0244DD
:1005800000FB034E840A970A44EA815447EA8357E2
:10059000A4FB076802958D0A05FB07854FEA932C9B
:1005A00004FB0C542705029D4FEA065847EA16370C
:1005B000B5EB08056EEB070C870E920E47EA811724
:1005C00042EA8312A7FB0201B6EB0B0164EB0004C5
:1005D0002B0D43EA0C335E1844EB1C50DA465146AF
:1005E000E7FB0201C5F313044FEA0B3343EA14534C
:1005F0004FEA0432019C43EA0603A4F10C0402947E
:10060000009CCDE900B400F041F903B0BDE8F08FE3
:1006100000200146F9E72DE9F04D81EA030404F0DA
:10062000004B21F0004514464FF0000A23F0004132
:1006300050EA050220D054EA01021DD0C5F30A5742
:100640000246C5F31303C1F31300C1F30A5640F485
:10065000801543F48013A7EB0608101BD64608F25A
:10066000FD3873EB050002D308F1010801E0921890
:100670005B41B8F1000F03DA00200146BDE8F08DC0
:1006800000204FF48011064684460EE0171B73EBE2
:10069000050705D3121B63EB050306434CEA010C67
:1006A00049084FEA300092185B4150EA0107EDD14A
:1006B00052EA030012D082EA040083EA05010843EB
:1006C00005D0101BAB4106D20122002306E0002218
:1006D0004FF0004302E06FF0010253101AEB0600E6
:1006E0004CEB085110EB0A0041EB0B01BDE8F04D5B
:1006F00000F0BDB896230022114600F08AB80EB56E
:1007000040F2334102910021CDE900110A460B4627
:1007100000F0BCF803B000BD20F00040C10DC0F3F4
:10072000160040F400007F2901DA00207047962966
:1007300003DCC1F19601C840704796398840704784
:1007400000F0004230F000400AD0C10D01F56071A8
:10075000C0F3160042EA0151C20840071143704736
:1007600000200146704701F0004330B421F0004101
:1007700050EA010206D00A0DA2F56072C1F313011E
:10078000002A02DC30BC00207047440F44EAC10458
:10079000C100E01830BC00EBC25000F031B8202A94
:1007A00004DB203A00FA02F1002070479140C2F1C8
:1007B000200320FA03F3194390407047202A04DBFA
:1007C000203A21FA02F00021704721FA02F3D040CA
:1007D000C2F120029140084319467047202A06DBE7
:1007E000CB17203A41FA02F043EAE07306E041FAFF
:1007F00002F3D040C2F120029140084319467047ED
:100800000029A8BF7047401C490008BF20F0010024
:10081000704710B4B0FA80FC00FA0CF050EA010402
:1008200004BF10BC704749B1CCF1200421FA04F494
:1008300011FA0CF118BF012121430843A3EB0C016D
:10084000CB1D4FEA00614FEA102042BF002010BCD0
:10085000704700EBC35010440029A4BF10BC704780
:10086000401C490008BF20F0010010BC704710B5C3
:10087000141E73F1000408DA401C41F100019218C3
:100880005B411A4301D120F0010010BD2DE9F04D6C
:1008900092469B4611B1B1FA81F202E0B0FA80F2C1
:1008A00020329046FFF77BFF04460F4640EA0A00DD
:1008B00041EA0B0153465A46084313D0114653EA06
:1008C000010019D0C8F140025046FFF777FF0546F6
:1008D0000E46504659464246FFF761FF084305D091
:1008E000012004E020463946BDE8F08D0020054394
:1008F00046EAE0762C4337430A986305E40AA0EB06
:1009000008000022FD0A44EA47540A3002D50020BC
:100910000146E9E7010510196941DDE908450019BB
:100920006941BDE8F04DA2E7064C074D06E0E068DE
:1009300040F0010394E8070098471034AC42F6D326
:10094000FFF724FCC02E0008E02E000830B58C18FC
:1009500010F8012B12F00F0301D110F8013B12091E
:1009600006D110F8012B03E010F8015B01F8015BE0
:100970005B1EF9D101E001F8013B521EFBD1A142FF
:10098000E6D3002030BD10B50146806B026C12F03A
:10099000500F05D0026CD20626D500F0B9FA10BD72
:1009A000016C41F40071016401688A6812F0405FD3
:1009B00017D1027EAAB9CA6A12F4700F02D08A68EF
:1009C00052050ED44A6822F020024A60016C21F4DC
:1009D00080710164016CC90403D4016C41F0010110
:1009E000016400F093FA10BD806BC26CBDE810404A
:1009F0000846104710B5806B40210164416C41F0FE
:100A00000401416400F084FA10BD10B5806B00F061
:100A10007EFA10BD4B4910B5D1F8042322F44032C0
:100A2000C1F80423D1F8042343681A43C1F804230E
:100A300001684A6822F480724A6001684A68036962
:100A400042EA03224A6001684A6822F040724A6022
:100A500001684A6883681A434A6001688A6822F418
:100A600000628A6001688A68C3681A438A60816A82
:100A70006FF07062D14201688A6822F070628A6009
:100A800001688A680CD0836A1A438A6001688A68A0
:100A900022F040528A6001688A68C36A1A4301E002
:100AA00022F040528A6001688A6822F002028A605D
:100AB00001688A68037E42EA43028A6090F8201047
:100AC000002901684A6815D042F400624A60016852
:100AD0004A6822F460424A6001684B684FF46044FF
:100AE000426A94FAA4F4B4FA84F4521EA240134366
:100AF0004B6002E022F400624A600168CA6A22F494
:100B00007002CA620168CA6A838B0F4C04EB0353FC
:100B10001A43CA6201688A6822F400728A60016816
:100B20008A6890F8303042EA43228A6001688A6815
:100B300022F480628A6001688A68406942EA802003
:100B4000886010BD002001400000F0FFFEE70000BB
:100B500001681823CAB2103AB2FBF3F2054B6FF3E7
:100B60000901032A9B5CC36500D9091D81650846FC
:100B700070470000A02E000810B5014600208B69C8
:100B80008A6A4FF0C07453B1B3F5005F15D072B1EB
:100B9000012A0CD0022A0AD0032A09D104E01AB192
:100BA000012A06D0022A03D1C96AC90100D5012051
:100BB00010BDC96AA142FAD010BD002AF7D0012A9F
:100BC000F2D0022AF3D0032AF3D010BD30B5046866
:100BD000256825F480252560046863608368402BC0
:100BE000036803D099600068C26030BD9A600068F5
:100BF000C16030BD704772B6FEE7000070B590F876
:100C00003C206B4D012A19D0012280F83C200A6853
:100C100007230468092A13D9E6680A3A02EB42025C
:100C200093409E43E6600A788B680A3A02EB4202E0
:100C300093400268D4682343D36010E0022070BD63
:100C4000266902EB420293409E4326610B788A6834
:100C500003EB43039A4003681C6922431A6102684C
:100C6000936B23F4401393630268936B0C8A514E89
:100C700006EB0454234393630A790B7CD21AD21CEB
:100C800002EB82021F2393400268946B9C4394639F
:100C90000A790B7CD21AD21C02EB82030A8892B228
:100CA0009A4003689C6B22439A638A69AA4202684D
:100CB000936823F470239360026893680CD08C6966
:100CC000234393600268936823F44013936002689F
:100CD0009368CC69234301E023F4401393604A7D79
:100CE000002A0268536802D043F4806301E023F4D1
:100CF000806353600A7D002A0268536802D043F47F
:100D0000805301E023F4805353604A68012A15D0D0
:100D1000022A1ED0032A026826D0136A6FF30B033F
:100D200013620268136ACC6823431362224A036881
:100D3000934229D10B68122B20D025E00268536919
:100D40006FF30B03536102685369CC68234353610B
:100D5000ECE7026893696FF30B0393610268936990
:100D6000CC6823439361E1E7D3696FF30B03D3614D
:100D70000268D369CC682343D361D7E7D2F8043340
:100D800043F48003C2F80433036893420AD109682C
:100D9000102901D0112905D1D2F8041341F4000122
:100DA000C2F80413002180F83C10084670BD000012
:100DB00001000F000000F0FF0020014078B5002482
:100DC000009490F83C20012A19D0012280F83C20A0
:100DD0000A6807230568092A13D9EE680A3A02EB64
:100DE000420293409E43EE600B788A680A3B03EB15
:100DF00043039A400368DD682A43DA6010E002206A
:100E000078BD2E6902EB420293409E432E610A7820
:100E10008B6802EB42029340026815692B43136111
:100E20004A681F23072A13D205686E6B521E02EB15
:100E3000820293409E436E630B790A885B1E92B2D6
:100E400003EB83039A4003685D6B2A435A6327E0F0
:100E500005680D2A12D22E6BD21F02EB820293403C
:100E60009E432E630B790A88DB1F92B203EB830348
:100E70009A4003681D6B2A431A6311E0EE6A0D3A2B
:100E800002EB820293409E43EE620B790A880D3B8F
:100E900092B203EB83039A400368DD6A2A43DA6265
:100EA000174A0368934208D10B68122B05D1D2F878
:100EB000043343F48003C2F80433036893421AD125
:100EC0000B68102B01D0112B15D1D2F8043343F449
:100ED0000003C2F80433096810290CD109490A4AF1
:100EE0000968B1FBF2F101EB8101490000E0491E04
:100EF00000910029FBD180F83C40002078BD000023
:100F0000002001403004002040420F00704770472D
:100F1000704770B504004FF0000503D0206C002628
:100F200010B107E0012070BD204600F01DF8666496
:100F300084F83C60206CC00610D4206C20F48850EB
:100F400040F0020020642046FFF764FD6664206CD8
:100F500020F0020040F00100206400E0012584F848
:100F60003C60284670BD000070B586B0064614216E
:100F70006846FFF75DF91D493068884234D11C4846
:100F80000025016841F480710160006800F4807000
:100F9000059017481438016841F0010101600068AC
:100FA000694600F001000590012000900320CDE982
:100FB0000105104800F0BCF9104C0F48C4E90005C9
:100FC0000015A560C4E90350400060618000A06185
:100FD0004011C4E907052046656200F0F5F808B144
:100FE000FFF709FEB463A66306B070BD00200140A0
:100FF000443802400000024010640240E004002037
:10100000F8B50D4600210446009190F83C000128F7
:1010100007D0012084F83C0020688368DB0702D0F9
:1010200011E00220F8BD836843F001038360324879
:10103000324B0068B0FBF3F000EB400000E0401ED4
:1010400000900028FBD120688368DB0749D0236C1F
:1010500040F20166B34343F4807323644068400563
:1010600005D5206C20F4005040F480502064206CA2
:10107000C00404D5606C20F00600606400E0616488
:1010800084F83C10A16B1E48C863A16B1D4808641E
:10109000A16B1D48C86421686FF0220008602068B9
:1010A000416841F0806141602068816841F480714D
:1010B0008160216813462A464C31A06B00F0EEF89F
:1010C0001249D1F80403C006206801D0884210D12B
:1010D000816811F0405F0CD1816841F080418160EE
:1010E00007E0206C40F010002064606C40F00100CC
:1010F00060640020F8BD00003004002040420F0072
:10110000870900080B0A0008F509000800200140C3
:101110002DE9F0410446876D00F058FA064694F830
:1011200035000025022806D08020606584F8345000
:101130000120BDE8F0812068016821F016010160FE
:101140002068416921F080014161206C08B9A06CE0
:1011500020B12068016821F0080101602068016861
:1011600021F0010101600CE000F030FA801B05283D
:1011700007D920206065032084F8350084F83450B6
:10118000D7E720680068C007EED194F85C103F20D4
:101190008840B860012084F8350084F8345000207D
:1011A000C7E790F83510022903D08021416501205E
:1011B0007047052180F835100068016821F00101B1
:1011C00001600020704700002DE9F041044600F066
:1011D000FDF906465CB1022084F83500002584F84C
:1011E00034502068016821F0010101600DE0012008
:1011F000BDE8F08100F0EAF9801B052805D9202020
:101200006065032084F83500F2E720680068C007B5
:10121000F0D12268116820480140D4E90103184345
:10122000D4E903363343184363691843A369184369
:10123000E3691843236A18430843616A042903D108
:10124000D4E90B1319430843106020684069666AAB
:1012500020F0070130460E43012704280CD1A06A74
:101260000643E06A40B12046FFF786FC20B14020EB
:10127000606584F83570BAE7206846612046FFF75C
:1012800067FC94F85C203F2191408160656584F89B
:1012900035700020ACE700003F8010F02DE9F041F0
:1012A0000446866D90F83400002501280DD00120F9
:1012B00084F8340094F835700020012F07D084F8AA
:1012C000340002252846BDE8F0810220FBE7022712
:1012D00084F8357060652046FFF778FC94F85C1060
:1012E0003F208840B0602068016841F0160101602D
:1012F000206C20B12068016841F00801016020687D
:10130000016841F001010160DCE7000031B500F047
:101310005DF9009C0546601C02D004480078044436
:1013200000F054F9401BA042FAD338BD2404002039
:101330002DE9F04FDFF85092002309F1040A01264D
:1013400003250AF1040B85B00F270BF1040E12E1FF
:10135000224606FA03F422407ED091F804C00CF035
:10136000030CBCF1010F02D0BCF1020F26D1D0F862
:101370000880CDF800804FEA430805FA08FCCDF854
:101380001080DDF8008028EA0C08CDF80080D1F844
:101390000CC0DDF810800CFA08FCDDF800804CEA87
:1013A000080CC0F808C0D0F804C02CEA040C0C7972
:1013B000C4F300149C4044EA0C0444600C79E443F8
:1013C000A40712D0C4684FEA430CCDF808C005FA50
:1013D0000CFC24EA0C04D1F80880DDF808C008FAF7
:1013E0000CF848EA0408C0F80C800C7904F00304F7
:1013F000022C16D1DC0800EB840CCDF808C0DCF818
:1014000020C05C074FEAD46807FA08F42CEA040C01
:101410000C6904FA08F444EA0C04DDF808C0CCF8BE
:10142000204004684FEA430805FA08FC24EA0C044B
:1014300091F804C00CF0030C0CFA08FC4CEA040C04
:10144000C0F800C04C6814F4403F05D04F4CD4F8AD
:1014500000C04CF4804C00E08CE0C4F800C024686C
:1014600023F0030C04F480440094494C6444029437
:10147000D4F808484FEA837C4FEA1C7807FA08FC46
:1014800024EA0C04DFF80CC1604502D14FF0000CD7
:1014900039E0DFF804C1604502D14FF0010C32E0C1
:1014A000DFF8F8C0604502D14FF0020C2BE0DFF806
:1014B000F0C0604502D14FF0030C24E0DFF8E4C037
:1014C000604502D14FF0040C1DE0DFF8DCC0604540
:1014D00002D14FF0050C16E0DFF8D0C0604502D114
:1014E0004FF0060C0FE0DFF8C8C0604502D14FF0A6
:1014F000070C08E0DFF8BCC0604502D14FF0080CD3
:1015000001E04FF0090C0CFA08FC4CEA040C029CB8
:10151000C4F808C8D9F80040CC46D1F804809443F8
:101520005FEAC83800D51443CCF80040DAF8004030
:10153000D446D1F8048094435FEA883800D5144338
:10154000CCF80040DBF80040DC46D1F8048094433E
:101550005FEAC82800D51443CCF80040DEF800400C
:10156000F446D1F8048094435FEA882800D51443F8
:10157000CCF800405B1C0A681446DA407FF4E8AE01
:1015800005B0BDE8F08F0000003C01404438024047
:101590000030014000000240000402400008024008
:1015A000000C0240001002400014024000180240EB
:1015B000001C0240002002400069084000D00120C9
:1015C00070470AB1816170470904FBE701488068F0
:1015D000704700002404002002488168027811440A
:1015E00081607047240400200B4810B5016841F465
:1015F00000710160016841F480610160016841F49B
:1016000080710160032000F06FF8002000F006F800
:1016100000F024F8002010BD003C024070B50D4DD4
:1016200004464FF47A712878B1FBF0F00A49096852
:10163000B1FBF0F000F004FB48B9102C07D20022F7
:101640002146501E00F030F800206C6070BD012073
:1016500070BD000024040020300400200A4808B5B2
:10166000016841F480410160006800F4804000900E
:101670000548001F016841F080510160006800F0DA
:101680008050009008BD000044380240002809DB6B
:1016900000F01F02012191404009800000F1E0208C
:1016A000C0F8001170470000F0B40E4B1B680C46E8
:1016B000C3F30223C3F10705042D00D90425191D26
:1016C000072901D2002300E0DB1E012606FA05F1FE
:1016D000491E214099409E40761E16403143F0BC81
:1016E00001F035BA0CED00E0064900F00702086889
:1016F0004FF6FF03184040EA0220034A10430860F7
:10170000704700000CED00E00000FA052DE9F047FD
:101710000E46050063D0DFF81C81D8F80000F7B250
:1017200000F00F00B04207D288F80070D8F800002F
:1017300000F00F00B04252D128683F4C810712D50B
:10174000400703D5206840F4E05020602878000767
:1017500003D5206840F4604020602068A96820F02C
:10176000F000084320602878C0072BD03249686811
:101770000839012810D00968022810D089070029EB
:101780002DDA216821F0030101432160FFF71EFFDC
:10179000814641F2883A0EE009688903EFE7890142
:1017A000EDE700BFFFF712FFA0EB0901514502D999
:1017B0000320BDE8F0872068696800F00C00B0EBFA
:1017C000810FEFD1D8F80010404601F00F01B1426F
:1017D00007D90770006800F00F00B04201D0012067
:1017E000E7E72878400705D52068E96820F4E0504D
:1017F000084320602878000706D52068296920F46E
:10180000604040EAC100206000F04EF82168F022FC
:1018100092FAA2F201F0F001B2FA82F2D140074A44
:10182000515CC8400649086006480068FFF7F6FEAC
:101830000020BEE7003C024008380240A82E000805
:10184000300400202804002008480949006809687D
:101850004FF4E05292FAA2F201F4E051B2FA82F2AD
:10186000D140044A515CC840704700003004002059
:1018700008380240B82E000808480949006809687D
:101880004FF4604292FAA2F201F46041B2FA82F29D
:10189000D140044A515CC840704700003004002029
:1018A00008380240B82E0008154810B5006810F03E
:1018B0000C02144813D04110042A0FD0082A0ED16C
:1018C0000F4C241F2268236802F03F025B0207D5F9
:1018D0002068C0F38810A0FB010106E0084610BD97
:1018E0002168C1F38811A1FB00010023FEF768FC09
:1018F0002168C1F30141491C4900B0FBF1F010BD62
:10190000083802400024F4002DE9F84F04007BD091
:10191000DFF814B32078ABF10406C007A6F1040584
:1019200036D0DBF800105846C1F38101012907D0F9
:101930000068C0F38100022809D13068400206D552
:101940002868800324D560680028E0D020E0B649EC
:101950002079891F0870606868B1FFF737FE074675
:1019600005E000BFFFF732FEC01B642876D8286868
:101970008003F7D50CE0FFF729FE074605E000BF1E
:10198000FFF724FEC01B6428F0D828688003F7D432
:101990002078DFF8988280074FF0000944D5DBF803
:1019A0000010584611F00C0F4FF0F80A07D00068ED
:1019B000C0F38100022809D13068400206D42868AB
:1019C000800715D5E06801281ED111E0E068E0B17C
:1019D0000120C8F80000FFF7F9FD074605E000BF49
:1019E000FFF7F4FDC01B0228C0D828688007F7D590
:1019F00028689AFAAAF22169B2FA82F220F0F80075
:101A00009140084328600FE00AE1C8F80090FFF712
:101A1000DDFD074605E000BFFFF7D8FDC01B02282B
:101A20001CD828688007F7D42078000727D5DFF86E
:101A3000F8A17F4861690AF16C0A81B10121016056
:101A4000FFF7C4FD074604E0FFF7C0FDC01B0228F6
:101A500004D8DAF800008007F6D510E082E0C0F87C
:101A60000090FFF7B3FD074605E000BFFFF7AEFDAE
:101A7000C01B022876D8DAF800008007F6D4207858
:101A800040075FD5DFF8A0A100270AF1380ADAF88D
:101A90000000C0000BD4DAF8001041F08051CAF801
:101AA0000010DAF80000012700F080500090614833
:101AB000016841F4807101600168C90512D40168B0
:101AC00041F480710160FFF781FD009006E000BFE6
:101AD000FFF77CFD0099401A02287ED8554800681F
:101AE000C005F5D55049207A68310870A06888B1E2
:101AF000FFF76CFD009007E0FFF768FD0099411AC1
:101B000041F28830814268D84748683000688007D1
:101B1000F2D510E0FFF75AFD009007E0FFF756FD01
:101B20000099411A41F28830814256D83E486830C7
:101B300000688007F2D42FB1DAF8001021F080514C
:101B4000CAF80010A069B8B3DBF80010C1F3810136
:101B5000022949D00228C8F8609004D0FFF736FD6A
:101B600004463DE039E0FFF731FD074605E000BFE0
:101B7000FFF72CFDC01B64282FD828688001F7D4FC
:101B8000D4E907010843616A94F82C20890141EAED
:101B900002610843A16A284A490802EB014108434F
:101BA0003168264A1140084330600120C8F86000BF
:101BB000FFF70CFD044606E034E000BFFFF706FD2A
:101BC000001B642809D828688001F7D52AE000BFE7
:101BD000FFF7FCFC001B642802D90320BDE8F88F46
:101BE00028688001F4D41DE00128F7D03068E2694C
:101BF00000F48001914213D1226A00F03F0191422A
:101C00000ED1616AC0F38812914209D1A26A00F430
:101C10004031914204D1E16A00F07060884201D005
:101C20000120DBE70020D9E70838024000004742E6
:101C3000800E4742007000400000FFFF0080BCF0B3
:101C400010B5401EB0F1807F01D3012010BD4FF0D0
:101C5000E02460610F21601700F079FF0020A0618F
:101C600007202061002010BD7047704770B590F8C4
:101C70003C20012A32D0012480F83C40022280F826
:101C80003D2003685A689D6822F070060A68324356
:101C90005A60134B02689A4214D0B2F1804F11D0AF
:101CA000104B9A420ED0104B9A420BD00F4B9A42D7
:101CB00008D00F4B9A4205D00E4B9A4202D00E4BE1
:101CC0009A4204D1496825F080031943916080F855
:101CD0003D40002180F83C10084670BD022070BDD8
:101CE000000001400004004000080040000C0040DB
:101CF00000040140004001400018004010B50400FD
:101D000003D094F83D0010B107E0012010BD002081
:101D100084F83C00204600F01FF8022084F83D00C3
:101D2000211D206800F018FD012084F8460084F889
:101D30003E0084F83F0084F8400084F8410084F8B5
:101D4000420084F8430084F8440084F8450084F895
:101D50003D00002010BD000008B500680B49884216
:101D600012D10B48016841F00401016000680022B3
:101D700000F00400009002211E20FFF795FCBDE852
:101D800008401E20FFF782BC08BD0000000800408C
:101D90004038024090F83D10012901D001207047E1
:101DA000022180F83D100168CA6842F00102CA6051
:101DB00000681149884214D0B0F1804F11D00F490A
:101DC00088420ED00E4988420BD00E49884208D076
:101DD0000D49884205D00D49884202D00C498842FD
:101DE00004D1816801F00701062903D0016841F0A0
:101DF0000101016000207047000001400004004024
:101E000000080040000C0040000401400040014078
:101E1000001800400168CA6822F00102CA60016827
:101E20000A6A41F211131A4207D10A6A9B101A4238
:101E300003D10A6822F001020A60012180F83D10F6
:101E40000020704770B5044690F83C00012817D078
:101E5000012584F83C50022084F83D002068826807
:101E600022F0770222F47F4282600868502830D046
:101E70000DDC20284DD005DC98B310283BD148E07C
:101E8000022070BD302844D0402834D139E0602889
:101E900028D0702806D0B0F5805F2CD0B0F5005F58
:101EA00029D10AE0CB68D1E90121206800F0B8FC13
:101EB0002068816841F0770109E0CB68D1E9012110
:101EC000206800F0ADFC2068816841F480418160A9
:101ED00011E0CA684968206800F0B4FC502120680D
:101EE00007E016E0CA684968206800F0BCFC602181
:101EF000206800F09FFC84F83D50002084F83C00EE
:101F000070BDCA684968206800F09CFC40212068C8
:101F1000EFE7226801461046EBE7704770B50446CC
:101F2000006801694FF00005C943890715D4C168ED
:101F3000C943890711D4E91E016101202077206877
:101F400080698007204602D0FFF7E7FF04E000F039
:101F500098F8204600F096F8257720680169C94373
:101F6000490717D4C168C943490713D46FF0040166
:101F70000161022020772068806910F4407F2046AC
:101F800002D0FFF7CAFF04E000F07BF8204600F023
:101F900079F8257720680169C943090716D4C16813
:101FA000C943090712D46FF00801016104202077AA
:101FB0002068C0698007204602D0FFF7AEFF04E02A
:101FC00000F05FF8204600F05DF825772068016991
:101FD000C943C90617D4C168C943C90613D46FF0F1
:101FE00010010161082020772068C06910F4407F4B
:101FF000204602D0FFF791FF04E000F042F82046AF
:1020000000F040F8257720680169C943C90708D165
:10201000C168C943C90704D1891E0161204600F087
:1020200033F820680169C943090609D4C168C94366
:10203000090605D46FF0800101612046FFF714FE08
:1020400020680169C943490609D4C168C9434906E2
:1020500005D46FF040010161204600F035F820689A
:102060000169C94389060BD4C168C943890607D4ED
:102070006FF0200101612046BDE87040FFF7F5BD1B
:1020800070BD70477047000010B500680B4988426A
:1020900012D10B4C6068401C606014280CD10020E9
:1020A00060604FF07E51A068FEF7D4F8A060BDE8F4
:1020B00010400448FFF7AEBE10BD0000000800400D
:1020C0000000002040050020704770477047000066
:1020D000F8B5026804461068D168536910F00F0F14
:1020E0004FF0000553D003F0010601F49077374319
:1020F0005FD0C20705D0CA0503D5226C42F00102A9
:102100002264420705D5DA0703D0226C42F00202AE
:102110002264820705D5DA0703D0226C42F004025C
:102120002264020707D501F02002324303D0226C5B
:1021300042F008022264226C002A34D0800604D5C2
:10214000880602D5204600F0C0FB20684069216C5B
:10215000C0F38010090700D430B3204600F09DFB87
:102160002068416949061BD5416921F04001416160
:10217000A06BA8B159490165A06BFFF712F80028C0
:1021800011D0A06B016D01B0BDE8F0400847830697
:102190000FD58B060DD52046BDE8F84000F095BB65
:1021A0002046FFF793FFF8BD2046FFF78FFF256419
:1021B000F8BD266B2023012E53D1C60651D5CE067D
:1021C0004FD5106850680090506940062BD5A16B20
:1021D000086840680004000CEAD0A68D8642E7D962
:1021E000E085C869B0F5807F18D0D06820F4807091
:1021F000D0602068416921F0010141612068416996
:1022000021F04001416184F83E3025632068C168B7
:1022100021F01001C160A06BFEF77AFFA08DE18D67
:10222000401A81B219E0A08DE18D401A81B2E08D93
:102230000028BDD00029BBD0D06820F49070D060B9
:102240002068426922F00102426184F83E30256331
:102250002068C26822F01002C2602046FFF735FFF6
:10226000F8BD05062BD50D0629D594F83D0021288B
:10227000F6D1A068B0F5805F01D12069B0B1206AC5
:10228000411C2162216800784860E08C401E0004F7
:10229000000CE084E4D12068C16821F08001C160B5
:1022A0002068C16841F04001C160F8BD206A008823
:1022B000C0F308005060206A801C2062E5E74006F9
:1022C000F3D54806F1D5D168204621F04001D16010
:1022D00084F83D3000F00DF9F8BD00008B280008AF
:1022E00070B5040004D094F83D00002510B106E05C
:1022F000012070BD84F83C50204600F023F82420D3
:1023000084F83D002068C16821F40051C160204676
:1023100000F036FB2068016921F4904101612068DA
:10232000416921F02A0141612068C16841F40051EE
:10233000C1602564202084F83D0084F83E00002020
:1023400070BD000010B586B0044614216846FDF744
:102350006FFF18492068884229D117480021026878
:1023600042F010020260006800F010000590124870
:102370001438026842F001020260006800F00100B7
:1023800005904FF4C06000900220CDE901010320C8
:1023900003900720049069460848FEF7C9FF002211
:1023A00001212520FFF780F92520FFF76FF906B0FE
:1023B00010BD0000001001404438024000000240FF
:1023C00090F83E30202B0ED159B152B190F83C30EC
:1023D000012B08D0012380F83C300023036300F078
:1023E00061BB0120704702207047000070B5114C9E
:1023F000114D21780D2904D0606A2954401C606277
:1024000011E0002060620C48FDF71DFF82B24FF41E
:102410007A730949094800F013F8617800202954BB
:10242000401C6428FBD3BDE87040012201490348E9
:10243000FFF7C6BF140000203404002088050020E8
:102440002DE9F843044690F83D001F4616460D4618
:1024500020284CD1C5B1BEB194F83C00012846D02B
:10246000012084F83C004FF00008C4F8408021208F
:1024700084F83D00FFF7AAF8A6848146E684A068A8
:10248000B0F5805F03D004E00120BDE8F883206947
:1024900028B12E465FF0000584F83C800EE000264F
:1024A000FAE78021204600F018FBA0B9AEB116F87B
:1024B000010B21684860E08C401EE084E08C4B46B4
:1024C0004FF0000200970028EBD14FF0400120466A
:1024D00000F003FB30B10320D7E735F8020BC0F35F
:1024E0000800E6E7202084F83D000020CDE7022028
:1024F000CBE77047FEE7000030B58DB000240894AC
:1025000009940A94202168460B94FDF791FE1C481B
:102510001A490125C0E9001405618460057680F838
:1025200020401849C0E90A14C561C46080F83050E1
:102530004561FEF7EEFC08B1FEF75DFBCDE908450D
:1025400008A90F480A94FEF739FC08B1FEF753FBBF
:10255000CDE900450C480294CDE906048DF81540FC
:1025600004958DF81440694605480394FEF746FB30
:10257000002801D0FEF73FFB0DB030BD0020014028
:10258000980400200100000F01000F00054808B565
:10259000016841F480010160006800F4800000904F
:1025A00008BD00003038024030B587B014216846BD
:1025B000FDF73EFE19480024016841F080010160EA
:1025C000016801F080010591016841F0040101609A
:1025D000016801F004010591016841F00101016009
:1025E00000680F4D00F0010005900022FE212846F2
:1025F000FEF7E7FF0720CDE9000469460948029489
:10260000FEF796FEFE2000900120CDE90104694608
:1026100028460394FEF78CFE07B030BD30380240E8
:10262000000002400008024010B586B0002418489F
:102630000094019402940394049414490594016055
:1026400040F28331C0E9011440F21F31C0E90314A4
:102650008461FFF753FB08B1FEF7CDFA4FF48050C9
:10266000009069460A48FFF7EDFB08B1FEF7C3FA90
:102670002020CDE9040404A90548FFF7F7FA002853
:1026800001D0FEF7B8FA06B010BD00000008004007
:10269000400500200C4810B50A4901604FF416515E
:1026A0004160002181600C22C160C0E90412816197
:1026B000C161FFF715FE002803D0BDE81040FEF70A
:1026C0009ABA10BD0010014088050020FEE7FEE721
:1026D00070477047014B83E80700704718000020DF
:1026E000FEF77ABF10B592B030216846FDF7A0FD25
:1026F00014210CA8FDF79CFD0120009001900224FC
:102700008005CDE906400420D821CDE90801062145
:10271000CDE90A106846FFF7F7F808B172B6FEE790
:102720000F20CDE90C0400200E904FF4A0500F9024
:102730004FF48050109002210CA8FEF7E7FF00280C
:1027400001D072B6FEE712B010BD70470148FFF726
:10275000E5BB000040050020F0B50268254C264D81
:10276000264E274F274B4FF0804CA04209D06045A2
:1027700007D0A84205D0B04203D0B84201D0984259
:1027800004D122F0700E4A6842EA0E02A0421BD029
:10279000604519D0A84217D0B04215D0B84213D026
:1027A000984211D0184DA8420ED0184DA8420BD017
:1027B000174DA84208D0174DA84205D0164DA84283
:1027C00002D0164DA84203D122F44075CA682A43AC
:1027D0004D6922F080022A4302608A68C2620A6858
:1027E0008262A04201D0984201D1096901630121AE
:1027F0004161F0BD000001400004004000080040BD
:10280000000C004000040140004001400044014031
:102810000048014000180040001C0040002000401B
:1028200010B5846842EA032224F47F440A43224319
:10283000826010BD826822F070020A4342F00701F4
:102840008160704710B5036A046A24F001040462D1
:10285000846924F0F00444EA021423F00A020A43D3
:102860008461026210BD10B5036A23F01003036295
:102870008369046A23F4704343EA023224F0A0031C
:1028800043EA01118261016210BD10B5806B002125
:10289000C185C184FFF71AFC10BD0168CA6822F423
:1028A0009072CA6001684A6922F001024A61016BB4
:1028B000012904D10168CA6822F01002CA602021EF
:1028C00080F83E1000210163704708B590F83E1073
:1028D000222901D0022008BD82684FF480539A4219
:1028E00001D1016921B1816A9A421BD04AB10AE043
:1028F0000268816A5268C2F308020A80816A891CF0
:1029000008E0026972B10268526802F07F020A7040
:10291000816A491C8162C18D491E0904090CC18567
:1029200003D019E002685268F1E70168CA6822F032
:102930002002CA600168CA6822F48072CA60016815
:102940004A6922F001024A61202180F83E10016BA1
:10295000012903D0FFF74AFD002008BD00210163D3
:102960000168CA6822F01002CA6001680A68D206CB
:1029700002D50A6849680091818DFFF7A6FBEBE755
:102980002DE9F041044600680169E26821F44051F4
:10299000114301612169A068E2690843616911433B
:1029A00022680843D16849F20C6399430143D1601E
:1029B00020684169A26921F440711143416137499E
:1029C0002068884202D03649884202D1FEF754FF7F
:1029D00001E0FEF739FF0246E36964203221B3F5D6
:1029E000004F02EBC20303EB021362682BD092008C
:1029F000B3FBF2F5B5FBF0F5B3FBF2F66FF0180799
:102A00007D4306EB8505B3FBF2F601EB0515B5FB3F
:102A1000F0F5B6FBF0F605F0F00505EB0615B3FB97
:102A2000F2F6B3FBF2F2B2FBF0F27A4306EB82026B
:102A300001EB0211B1FBF0F000F00F002168284417
:102A40008860BDE8F0815200B3FBF2F6B6FBF0F609
:102A5000B3FBF2F7B3FBF2F56FF0180C06FB0CF6C4
:102A600007EB860601EBC606B5FBF0F5B6FBF0F604
:102A70002D0106F0F80605EB4605B3FBF2F6B3FBB5
:102A8000F2F2B2FBF0F202FB0CF206EB820201EB77
:102A9000C201B1FBF0F000F00700CFE700100140E9
:102AA0000014014081628285C285002101642222D6
:102AB00080F83E2080F83C100168CA6842F48072B9
:102AC000CA6001684A6942F001024A610068C1684F
:102AD00041F02001C160002070472DE9F041984687
:102AE00017460E460446069D1DE0681C1BD02DB1FE
:102AF000FEF76CFDA0EB0800A84214D92068C1685D
:102B000021F4D071C1602068416921F00101416167
:102B1000202084F83D0084F83E00002084F83C002A
:102B20000320BDE8F0812068006836EA000004D088
:102B30000020B842D9D00020F3E70120F9E70000D7
:102B40000148FFF7C5BA000088050020FEE7090725
:102B5000090E002804DB00F1E02080F80014704723
:102B600000F00F0000F1E02080F8141D704702E033
:102B700008C8121F08C1002AFAD170477047002008
:102B800001E001C1121F002AFBD1704710B50B4CA8
:102B90000B4821680068814201D1084600E02060AE
:102BA000FDF7ADFD074A084BFDF7C3FC0022074BBC
:102BB000FDF731FDFDF7D7FDE06010BD00000020FE
:102BC000300000202DDAD2598CA2934000FEAF4095
:102BD000FEF70AFDFFF786FDFFF7E6FCFFF7D6FCE0
:102BE000FFF78AFCFFF720FDFFF754FD4FF0804010
:102BF000174A0146FFF76EFD012216491648FEF7F7
:102C0000FFF91449012220391448FFF7D9FB114973
:102C10004FF47A7564232A4608311048FFF710FCF8
:102C20000C4C203C0B4964232A4608310B48FFF723
:102C300007FC2846FEF76AFB206AFDF75BFD00F003
:102C4000E1F8FDF769FDE06100F00AF8EAE700004D
:102C50006F12833A34000020980400208805002079
:102C60002DE9F041624840F26131DFF88881006867
:102C700088427CD9604D686800284FD15F4C0121A3
:102C80002046FEF799FC01280FD000260621204699
:102C9000FEF792FC58B1002006420AD00122102112
:102CA0004046FEF78EFC042018E00126EEE70120E6
:102CB000F2E702212046FEF77FFC012812D0002611
:102CC00005212046FEF778FC70B1002006420DD0A9
:102CD000012208214046FEF774FC03202861FFF71B
:102CE00055FF6CE00126EBE70120EFE704212046C9
:102CF000FEF762FC012813D0002603212046FEF7D0
:102D00005BFC78B1002006420ED001222021404613
:102D1000FEF757FCFFF73AFF05202861BDE8F08178
:102D20000126EAE70120EEE704212046FEF744FCF5
:102D3000F0B3002703212046FEF73EFC012800D017
:102D4000002007424FF006062ED101212046FEF753
:102D500033FC01283AD0002706212046FEF72CFC40
:102D600038B30020074210D10221204600E037E0AE
:102D7000FEF722FC01282FD0002705212046FEF770
:102D80001BFC58B300200742C8D004212046FEF7A0
:102D900013FCF8B1002703212046FEF70DFC0128A3
:102DA00000D000200742B9D001224021404601E076
:102DB0000AE00DE0FEF705FCFFF7E8FE2E61BDE836
:102DC000F0410F48FEF7E6BF0127B3E70127C3E74D
:102DD0000120C7E70127DEE70127CEE70120D2E780
:102DE0004046BDE8F04100227821FEF7EABB000032
:102DF00030000020000002400000002000080240D7
:102E0000400500202DE9F05F234C0546D4E9011070
:102E10008346FDF71FFA01465846FDF7A5FAA06163
:102E20006169804689462846FDF766FA4146FDF706
:102E300069FA4946FDF70EFA05462061E068FDF79C
:102E40007FFC0E46074629464846FDF755FA20F016
:102E50000040FDF775FC3A463346FDF76AFB8146B4
:102E60008A465846FDF76CFC07460E464046FDF77D
:102E700067FC0022094BFDF759FB3A463346FDF744
:102E800058FB4A465346FDF7ADFAFDF76CFC656109
:102E9000A0602846BDE8F09F140000200000F03F2D
:102EA00000061016000610160000000000000000CA
:102EB00001020304060708090000000001020304E0
:102EC000E02E000800000020340400004C09000837
:102ED000042F0008340400209C0500007E2B00080D
:102EE000013D0012FF78696E206368616F2076698A
:102EF0006574206E616D01FF01FF01DE42019210D9
:042F00001424F400A1
:040000050800018569
:00000001FF
